{
  "contractName": "DragonAgeGame",
  "abi": [
    {
      "inputs": [
        {
          "internalType": "string",
          "name": "_name",
          "type": "string"
        },
        {
          "internalType": "string",
          "name": "_symbol",
          "type": "string"
        }
      ],
      "stateMutability": "nonpayable",
      "type": "constructor"
    },
    {
      "anonymous": false,
      "inputs": [
        {
          "indexed": true,
          "internalType": "address",
          "name": "owner",
          "type": "address"
        },
        {
          "indexed": true,
          "internalType": "address",
          "name": "approved",
          "type": "address"
        },
        {
          "indexed": true,
          "internalType": "uint256",
          "name": "tokenId",
          "type": "uint256"
        }
      ],
      "name": "Approval",
      "type": "event"
    },
    {
      "anonymous": false,
      "inputs": [
        {
          "indexed": true,
          "internalType": "address",
          "name": "owner",
          "type": "address"
        },
        {
          "indexed": true,
          "internalType": "address",
          "name": "operator",
          "type": "address"
        },
        {
          "indexed": false,
          "internalType": "bool",
          "name": "approved",
          "type": "bool"
        }
      ],
      "name": "ApprovalForAll",
      "type": "event"
    },
    {
      "anonymous": false,
      "inputs": [
        {
          "indexed": true,
          "internalType": "address",
          "name": "owner",
          "type": "address"
        },
        {
          "indexed": false,
          "internalType": "uint256",
          "name": "id",
          "type": "uint256"
        },
        {
          "indexed": false,
          "internalType": "uint256",
          "name": "dna",
          "type": "uint256"
        }
      ],
      "name": "NewDragon",
      "type": "event"
    },
    {
      "anonymous": false,
      "inputs": [
        {
          "indexed": true,
          "internalType": "address",
          "name": "previousOwner",
          "type": "address"
        },
        {
          "indexed": true,
          "internalType": "address",
          "name": "newOwner",
          "type": "address"
        }
      ],
      "name": "OwnershipTransferred",
      "type": "event"
    },
    {
      "anonymous": false,
      "inputs": [
        {
          "indexed": true,
          "internalType": "address",
          "name": "from",
          "type": "address"
        },
        {
          "indexed": true,
          "internalType": "address",
          "name": "to",
          "type": "address"
        },
        {
          "indexed": true,
          "internalType": "uint256",
          "name": "tokenId",
          "type": "uint256"
        }
      ],
      "name": "Transfer",
      "type": "event"
    },
    {
      "inputs": [
        {
          "internalType": "address",
          "name": "to",
          "type": "address"
        },
        {
          "internalType": "uint256",
          "name": "tokenId",
          "type": "uint256"
        }
      ],
      "name": "approve",
      "outputs": [],
      "stateMutability": "nonpayable",
      "type": "function"
    },
    {
      "inputs": [
        {
          "internalType": "address",
          "name": "owner",
          "type": "address"
        }
      ],
      "name": "balanceOf",
      "outputs": [
        {
          "internalType": "uint256",
          "name": "",
          "type": "uint256"
        }
      ],
      "stateMutability": "view",
      "type": "function",
      "constant": true
    },
    {
      "inputs": [
        {
          "internalType": "uint256",
          "name": "",
          "type": "uint256"
        }
      ],
      "name": "dragons",
      "outputs": [
        {
          "internalType": "string",
          "name": "name",
          "type": "string"
        },
        {
          "internalType": "uint256",
          "name": "id",
          "type": "uint256"
        },
        {
          "internalType": "uint256",
          "name": "dna",
          "type": "uint256"
        },
        {
          "internalType": "uint8",
          "name": "level",
          "type": "uint8"
        },
        {
          "internalType": "uint8",
          "name": "rarity",
          "type": "uint8"
        }
      ],
      "stateMutability": "view",
      "type": "function",
      "constant": true
    },
    {
      "inputs": [
        {
          "internalType": "uint256",
          "name": "tokenId",
          "type": "uint256"
        }
      ],
      "name": "getApproved",
      "outputs": [
        {
          "internalType": "address",
          "name": "",
          "type": "address"
        }
      ],
      "stateMutability": "view",
      "type": "function",
      "constant": true
    },
    {
      "inputs": [
        {
          "internalType": "address",
          "name": "owner",
          "type": "address"
        },
        {
          "internalType": "address",
          "name": "operator",
          "type": "address"
        }
      ],
      "name": "isApprovedForAll",
      "outputs": [
        {
          "internalType": "bool",
          "name": "",
          "type": "bool"
        }
      ],
      "stateMutability": "view",
      "type": "function",
      "constant": true
    },
    {
      "inputs": [],
      "name": "name",
      "outputs": [
        {
          "internalType": "string",
          "name": "",
          "type": "string"
        }
      ],
      "stateMutability": "view",
      "type": "function",
      "constant": true
    },
    {
      "inputs": [],
      "name": "owner",
      "outputs": [
        {
          "internalType": "address",
          "name": "",
          "type": "address"
        }
      ],
      "stateMutability": "view",
      "type": "function",
      "constant": true
    },
    {
      "inputs": [
        {
          "internalType": "uint256",
          "name": "tokenId",
          "type": "uint256"
        }
      ],
      "name": "ownerOf",
      "outputs": [
        {
          "internalType": "address",
          "name": "",
          "type": "address"
        }
      ],
      "stateMutability": "view",
      "type": "function",
      "constant": true
    },
    {
      "inputs": [],
      "name": "renounceOwnership",
      "outputs": [],
      "stateMutability": "nonpayable",
      "type": "function"
    },
    {
      "inputs": [
        {
          "internalType": "address",
          "name": "from",
          "type": "address"
        },
        {
          "internalType": "address",
          "name": "to",
          "type": "address"
        },
        {
          "internalType": "uint256",
          "name": "tokenId",
          "type": "uint256"
        }
      ],
      "name": "safeTransferFrom",
      "outputs": [],
      "stateMutability": "nonpayable",
      "type": "function"
    },
    {
      "inputs": [
        {
          "internalType": "address",
          "name": "from",
          "type": "address"
        },
        {
          "internalType": "address",
          "name": "to",
          "type": "address"
        },
        {
          "internalType": "uint256",
          "name": "tokenId",
          "type": "uint256"
        },
        {
          "internalType": "bytes",
          "name": "_data",
          "type": "bytes"
        }
      ],
      "name": "safeTransferFrom",
      "outputs": [],
      "stateMutability": "nonpayable",
      "type": "function"
    },
    {
      "inputs": [
        {
          "internalType": "address",
          "name": "operator",
          "type": "address"
        },
        {
          "internalType": "bool",
          "name": "approved",
          "type": "bool"
        }
      ],
      "name": "setApprovalForAll",
      "outputs": [],
      "stateMutability": "nonpayable",
      "type": "function"
    },
    {
      "inputs": [
        {
          "internalType": "bytes4",
          "name": "interfaceId",
          "type": "bytes4"
        }
      ],
      "name": "supportsInterface",
      "outputs": [
        {
          "internalType": "bool",
          "name": "",
          "type": "bool"
        }
      ],
      "stateMutability": "view",
      "type": "function",
      "constant": true
    },
    {
      "inputs": [],
      "name": "symbol",
      "outputs": [
        {
          "internalType": "string",
          "name": "",
          "type": "string"
        }
      ],
      "stateMutability": "view",
      "type": "function",
      "constant": true
    },
    {
      "inputs": [
        {
          "internalType": "uint256",
          "name": "tokenId",
          "type": "uint256"
        }
      ],
      "name": "tokenURI",
      "outputs": [
        {
          "internalType": "string",
          "name": "",
          "type": "string"
        }
      ],
      "stateMutability": "view",
      "type": "function",
      "constant": true
    },
    {
      "inputs": [
        {
          "internalType": "address",
          "name": "from",
          "type": "address"
        },
        {
          "internalType": "address",
          "name": "to",
          "type": "address"
        },
        {
          "internalType": "uint256",
          "name": "tokenId",
          "type": "uint256"
        }
      ],
      "name": "transferFrom",
      "outputs": [],
      "stateMutability": "nonpayable",
      "type": "function"
    },
    {
      "inputs": [
        {
          "internalType": "address",
          "name": "newOwner",
          "type": "address"
        }
      ],
      "name": "transferOwnership",
      "outputs": [],
      "stateMutability": "nonpayable",
      "type": "function"
    },
    {
      "inputs": [
        {
          "internalType": "uint256",
          "name": "_fee",
          "type": "uint256"
        }
      ],
      "name": "updateFee",
      "outputs": [],
      "stateMutability": "nonpayable",
      "type": "function"
    },
    {
      "inputs": [],
      "name": "withdraw",
      "outputs": [],
      "stateMutability": "payable",
      "type": "function",
      "payable": true
    },
    {
      "inputs": [
        {
          "internalType": "string",
          "name": "_name",
          "type": "string"
        }
      ],
      "name": "createRandomDragon",
      "outputs": [],
      "stateMutability": "payable",
      "type": "function",
      "payable": true
    },
    {
      "inputs": [],
      "name": "getDragons",
      "outputs": [
        {
          "components": [
            {
              "internalType": "string",
              "name": "name",
              "type": "string"
            },
            {
              "internalType": "uint256",
              "name": "id",
              "type": "uint256"
            },
            {
              "internalType": "uint256",
              "name": "dna",
              "type": "uint256"
            },
            {
              "internalType": "uint8",
              "name": "level",
              "type": "uint8"
            },
            {
              "internalType": "uint8",
              "name": "rarity",
              "type": "uint8"
            }
          ],
          "internalType": "struct DragonAgeGame.Dragon[]",
          "name": "",
          "type": "tuple[]"
        }
      ],
      "stateMutability": "view",
      "type": "function",
      "constant": true
    },
    {
      "inputs": [
        {
          "internalType": "address",
          "name": "owner",
          "type": "address"
        }
      ],
      "name": "getOwnerDragons",
      "outputs": [
        {
          "components": [
            {
              "internalType": "string",
              "name": "name",
              "type": "string"
            },
            {
              "internalType": "uint256",
              "name": "id",
              "type": "uint256"
            },
            {
              "internalType": "uint256",
              "name": "dna",
              "type": "uint256"
            },
            {
              "internalType": "uint8",
              "name": "level",
              "type": "uint8"
            },
            {
              "internalType": "uint8",
              "name": "rarity",
              "type": "uint8"
            }
          ],
          "internalType": "struct DragonAgeGame.Dragon[]",
          "name": "",
          "type": "tuple[]"
        }
      ],
      "stateMutability": "view",
      "type": "function",
      "constant": true
    },
    {
      "inputs": [
        {
          "internalType": "uint256",
          "name": "_dragonID",
          "type": "uint256"
        }
      ],
      "name": "levelUp",
      "outputs": [],
      "stateMutability": "nonpayable",
      "type": "function"
    }
  ],
  "bytecode": "0x6080604052662386f26fc100006008553480156200001c57600080fd5b5060405162002379380380620023798339810160408190526200003f916200025c565b81518290829062000058906000906020850190620000e9565b5080516200006e906001906020840190620000e9565b5050506200008b620000856200009360201b60201c565b62000097565b505062000302565b3390565b600680546001600160a01b038381166001600160a01b0319831681179093556040519116919082907f8be0079c531659141344cd1fd0a4f28419497f9722a3daafe3b4186f6b6457e090600090a35050565b828054620000f790620002c6565b90600052602060002090601f0160209004810192826200011b576000855562000166565b82601f106200013657805160ff191683800117855562000166565b8280016001018555821562000166579182015b828111156200016657825182559160200191906001019062000149565b506200017492915062000178565b5090565b5b8082111562000174576000815560010162000179565b634e487b7160e01b600052604160045260246000fd5b600082601f830112620001b757600080fd5b81516001600160401b0380821115620001d457620001d46200018f565b604051601f8301601f19908116603f01168101908282118183101715620001ff57620001ff6200018f565b816040528381526020925086838588010111156200021c57600080fd5b600091505b8382101562000240578582018301518183018401529082019062000221565b83821115620002525760008385830101525b9695505050505050565b600080604083850312156200027057600080fd5b82516001600160401b03808211156200028857600080fd5b6200029686838701620001a5565b93506020850151915080821115620002ad57600080fd5b50620002bc85828601620001a5565b9150509250929050565b600181811c90821680620002db57607f821691505b602082108103620002fc57634e487b7160e01b600052602260045260246000fd5b50919050565b61206780620003126000396000f3fe6080604052600436106101405760003560e01c8063715018a6116100b6578063c87b56dd1161006f578063c87b56dd14610381578063d2a59d69146103a1578063e985e9c5146103d2578063f2fde38b1461041b578063f8caf6c71461043b578063fdccc83e1461045057600080fd5b8063715018a6146102d95780638da5cb5b146102ee5780639012c4a81461030c57806395d89b411461032c578063a22cb46514610341578063b88d4fde1461036157600080fd5b80632235e2a4116101085780632235e2a41461021657806323b872dd146102435780633ccfd60b1461026357806342842e0e1461026b5780636352211e1461028b57806370a08231146102ab57600080fd5b806301ffc9a71461014557806306fdde031461017a578063081812fc1461019c578063095ea7b3146101d45780630ce90ec2146101f6575b600080fd5b34801561015157600080fd5b506101656101603660046119ef565b610463565b60405190151581526020015b60405180910390f35b34801561018657600080fd5b5061018f6104b5565b6040516101719190611a64565b3480156101a857600080fd5b506101bc6101b7366004611a77565b610547565b6040516001600160a01b039091168152602001610171565b3480156101e057600080fd5b506101f46101ef366004611aac565b6105e1565b005b34801561020257600080fd5b506101f4610211366004611a77565b6106f6565b34801561022257600080fd5b50610236610231366004611ad6565b61076d565b6040516101719190611af1565b34801561024f57600080fd5b506101f461025e366004611b8f565b610959565b6101f461098a565b34801561027757600080fd5b506101f4610286366004611b8f565b610a04565b34801561029757600080fd5b506101bc6102a6366004611a77565b610a1f565b3480156102b757600080fd5b506102cb6102c6366004611ad6565b610a96565b604051908152602001610171565b3480156102e557600080fd5b506101f4610b1d565b3480156102fa57600080fd5b506006546001600160a01b03166101bc565b34801561031857600080fd5b506101f4610327366004611a77565b610b53565b34801561033857600080fd5b5061018f610b82565b34801561034d57600080fd5b506101f461035c366004611bcb565b610b91565b34801561036d57600080fd5b506101f461037c366004611c93565b610b9c565b34801561038d57600080fd5b5061018f61039c366004611a77565b610bd4565b3480156103ad57600080fd5b506103c16103bc366004611a77565b610cbc565b604051610171959493929190611d0f565b3480156103de57600080fd5b506101656103ed366004611d49565b6001600160a01b03918216600090815260056020908152604080832093909416825291909152205460ff1690565b34801561042757600080fd5b506101f4610436366004611ad6565b610d92565b34801561044757600080fd5b50610236610e2d565b6101f461045e366004611d7c565b610f53565b60006001600160e01b031982166380ac58cd60e01b148061049457506001600160e01b03198216635b5e139f60e01b145b806104af57506301ffc9a760e01b6001600160e01b03198316145b92915050565b6060600080546104c490611dc5565b80601f01602080910402602001604051908101604052809291908181526020018280546104f090611dc5565b801561053d5780601f106105125761010080835404028352916020019161053d565b820191906000526020600020905b81548152906001019060200180831161052057829003601f168201915b5050505050905090565b6000818152600260205260408120546001600160a01b03166105c55760405162461bcd60e51b815260206004820152602c60248201527f4552433732313a20617070726f76656420717565727920666f72206e6f6e657860448201526b34b9ba32b73a103a37b5b2b760a11b60648201526084015b60405180910390fd5b506000908152600460205260409020546001600160a01b031690565b60006105ec82610a1f565b9050806001600160a01b0316836001600160a01b0316036106595760405162461bcd60e51b815260206004820152602160248201527f4552433732313a20617070726f76616c20746f2063757272656e74206f776e656044820152603960f91b60648201526084016105bc565b336001600160a01b0382161480610675575061067581336103ed565b6106e75760405162461bcd60e51b815260206004820152603860248201527f4552433732313a20617070726f76652063616c6c6572206973206e6f74206f7760448201527f6e6572206e6f7220617070726f76656420666f7220616c6c000000000000000060648201526084016105bc565b6106f18383610fc3565b505050565b3361070082610a1f565b6001600160a01b03161461071357600080fd5b60006009828154811061072857610728611dff565b6000918252602082206003600490920201908101805491935060ff9091169161075083611e2b565b91906101000a81548160ff021916908360ff160217905550505050565b6060600061077a83610a96565b67ffffffffffffffff81111561079257610792611c07565b6040519080825280602002602001820160405280156107fb57816020015b6107e86040518060a00160405280606081526020016000815260200160008152602001600060ff168152602001600060ff1681525090565b8152602001906001900390816107b05790505b50905060008060095481101561095157846001600160a01b031661081e82610a1f565b6001600160a01b031603610948576009818154811061083f5761083f611dff565b90600052602060002090600402016040518060a001604052908160008201805461086890611dc5565b80601f016020809104026020016040519081016040528092919081815260200182805461089490611dc5565b80156108e15780601f106108b6576101008083540402835291602001916108e1565b820191906000526020600020905b8154815290600101906020018083116108c457829003601f168201915b5050509183525050600182015460208201526002820154604082015260039091015460ff808216606084015261010090910416608090910152835184908490811061092e5761092e611dff565b6020026020010181905250818061094490611e4a565b9250505b50909392505050565b505050919050565b6109633382611031565b61097f5760405162461bcd60e51b81526004016105bc90611e63565b6106f1838383611128565b6006546001600160a01b031633146109b45760405162461bcd60e51b81526004016105bc90611eb4565b60006109c86006546001600160a01b031690565b6040519091506001600160a01b038216904780156108fc02916000818181858888f19350505050158015610a00573d6000803e3d6000fd5b5050565b6106f183838360405180602001604052806000815250610b9c565b6000818152600260205260408120546001600160a01b0316806104af5760405162461bcd60e51b815260206004820152602960248201527f4552433732313a206f776e657220717565727920666f72206e6f6e657869737460448201526832b73a103a37b5b2b760b91b60648201526084016105bc565b60006001600160a01b038216610b015760405162461bcd60e51b815260206004820152602a60248201527f4552433732313a2062616c616e636520717565727920666f7220746865207a65604482015269726f206164647265737360b01b60648201526084016105bc565b506001600160a01b031660009081526003602052604090205490565b6006546001600160a01b03163314610b475760405162461bcd60e51b81526004016105bc90611eb4565b610b5160006112c4565b565b6006546001600160a01b03163314610b7d5760405162461bcd60e51b81526004016105bc90611eb4565b600855565b6060600180546104c490611dc5565b610a00338383611316565b610ba63383611031565b610bc25760405162461bcd60e51b81526004016105bc90611e63565b610bce848484846113e4565b50505050565b6000818152600260205260409020546060906001600160a01b0316610c535760405162461bcd60e51b815260206004820152602f60248201527f4552433732314d657461646174613a2055524920717565727920666f72206e6f60448201526e3732bc34b9ba32b73a103a37b5b2b760891b60648201526084016105bc565b6000610c6a60408051602081019091526000815290565b90506000815111610c8a5760405180602001604052806000815250610cb5565b80610c9484611417565b604051602001610ca5929190611ee9565b6040516020818303038152906040525b9392505050565b60098181548110610ccc57600080fd5b9060005260206000209060040201600091509050806000018054610cef90611dc5565b80601f0160208091040260200160405190810160405280929190818152602001828054610d1b90611dc5565b8015610d685780601f10610d3d57610100808354040283529160200191610d68565b820191906000526020600020905b815481529060010190602001808311610d4b57829003601f168201915b50505050600183015460028401546003909401549293909290915060ff8082169161010090041685565b6006546001600160a01b03163314610dbc5760405162461bcd60e51b81526004016105bc90611eb4565b6001600160a01b038116610e215760405162461bcd60e51b815260206004820152602660248201527f4f776e61626c653a206e6577206f776e657220697320746865207a65726f206160448201526564647265737360d01b60648201526084016105bc565b610e2a816112c4565b50565b60606009805480602002602001604051908101604052809291908181526020016000905b82821015610f4a57838290600052602060002090600402016040518060a0016040529081600082018054610e8490611dc5565b80601f0160208091040260200160405190810160405280929190818152602001828054610eb090611dc5565b8015610efd5780601f10610ed257610100808354040283529160200191610efd565b820191906000526020600020905b815481529060010190602001808311610ee057829003601f168201915b50505091835250506001828101546020808401919091526002840154604084015260039093015460ff80821660608501526101009091041660809092019190915291835292019101610e51565b50505050905090565b600854341015610fba5760405162461bcd60e51b815260206004820152602c60248201527f54686520666565206973206e6f7420636f7272656374206f72206e6f7420656e60448201526b6f7567682062616c616e636560a01b60648201526084016105bc565b610e2a81611518565b600081815260046020526040902080546001600160a01b0319166001600160a01b0384169081179091558190610ff882610a1f565b6001600160a01b03167f8c5be1e5ebec7d5bd14f71427d1e84f3dd0314c0f7b2291e5b200ac8c7c3b92560405160405180910390a45050565b6000818152600260205260408120546001600160a01b03166110aa5760405162461bcd60e51b815260206004820152602c60248201527f4552433732313a206f70657261746f7220717565727920666f72206e6f6e657860448201526b34b9ba32b73a103a37b5b2b760a11b60648201526084016105bc565b60006110b583610a1f565b9050806001600160a01b0316846001600160a01b031614806110fc57506001600160a01b0380821660009081526005602090815260408083209388168352929052205460ff165b806111205750836001600160a01b031661111584610547565b6001600160a01b0316145b949350505050565b826001600160a01b031661113b82610a1f565b6001600160a01b03161461119f5760405162461bcd60e51b815260206004820152602560248201527f4552433732313a207472616e736665722066726f6d20696e636f72726563742060448201526437bbb732b960d91b60648201526084016105bc565b6001600160a01b0382166112015760405162461bcd60e51b8152602060048201526024808201527f4552433732313a207472616e7366657220746f20746865207a65726f206164646044820152637265737360e01b60648201526084016105bc565b61120c600082610fc3565b6001600160a01b0383166000908152600360205260408120805460019290611235908490611f18565b90915550506001600160a01b0382166000908152600360205260408120805460019290611263908490611f2f565b909155505060008181526002602052604080822080546001600160a01b0319166001600160a01b0386811691821790925591518493918716917fddf252ad1be2c89b69c2b068fc378daa952ba7f163c4a11628f55a4df523b3ef91a4505050565b600680546001600160a01b038381166001600160a01b0319831681179093556040519116919082907f8be0079c531659141344cd1fd0a4f28419497f9722a3daafe3b4186f6b6457e090600090a35050565b816001600160a01b0316836001600160a01b0316036113775760405162461bcd60e51b815260206004820152601960248201527f4552433732313a20617070726f766520746f2063616c6c65720000000000000060448201526064016105bc565b6001600160a01b03838116600081815260056020908152604080832094871680845294825291829020805460ff191686151590811790915591519182527f17307eab39ab6107e8899845ad3d59bd9653f200f220920489ca2b5937696c31910160405180910390a3505050565b6113ef848484611128565b6113fb84848484611660565b610bce5760405162461bcd60e51b81526004016105bc90611f47565b60608160000361143e5750506040805180820190915260018152600360fc1b602082015290565b8160005b8115611468578061145281611e4a565b91506114619050600a83611faf565b9150611442565b60008167ffffffffffffffff81111561148357611483611c07565b6040519080825280601f01601f1916602001820160405280156114ad576020820181803683370190505b5090505b8415611120576114c2600183611f18565b91506114cf600a86611fc3565b6114da906030611f2f565b60f81b8183815181106114ef576114ef611dff565b60200101906001600160f81b031916908160001a905350611511600a86611faf565b94506114b1565b60006115246064611761565b90506000611538662386f26fc10000611761565b6040805160a08101825285815260075460208083019190915291810183905260016060820181905260ff86166080830152600980549182018155600052815180519495509193849360049092027f6e1540171b6c0c960b71a7020d9f60077f6af931a8bbf590da0223dacf75c7af01926115b6928492910190611940565b50602082015160018201556040820151600282015560608201516003909101805460809093015160ff9081166101000261ffff199094169216919091179190911790556007546116079033906117b6565b600754604080519182526020820184905233917fce59585ad7228205f5944c7bd32743f9410d140b57dd32e4df4bf3b4f65fbc2f910160405180910390a26007805490600061165583611e4a565b919050555050505050565b60006001600160a01b0384163b1561175657604051630a85bd0160e11b81526001600160a01b0385169063150b7a02906116a4903390899088908890600401611fd7565b6020604051808303816000875af19250505080156116df575060408051601f3d908101601f191682019092526116dc91810190612014565b60015b61173c573d80801561170d576040519150601f19603f3d011682016040523d82523d6000602084013e611712565b606091505b5080516000036117345760405162461bcd60e51b81526004016105bc90611f47565b805181602001fd5b6001600160e01b031916630a85bd0160e11b149050611120565b506001949350505050565b600080423360405160200161179292919091825260601b6bffffffffffffffffffffffff1916602082015260340190565b60408051601f1981840301815291905280516020909101209050610cb58382611fc3565b610a008282604051806020016040528060008152506117d583836117fe565b6117e26000848484611660565b6106f15760405162461bcd60e51b81526004016105bc90611f47565b6001600160a01b0382166118545760405162461bcd60e51b815260206004820181905260248201527f4552433732313a206d696e7420746f20746865207a65726f206164647265737360448201526064016105bc565b6000818152600260205260409020546001600160a01b0316156118b95760405162461bcd60e51b815260206004820152601c60248201527f4552433732313a20746f6b656e20616c7265616479206d696e7465640000000060448201526064016105bc565b6001600160a01b03821660009081526003602052604081208054600192906118e2908490611f2f565b909155505060008181526002602052604080822080546001600160a01b0319166001600160a01b03861690811790915590518392907fddf252ad1be2c89b69c2b068fc378daa952ba7f163c4a11628f55a4df523b3ef908290a45050565b82805461194c90611dc5565b90600052602060002090601f01602090048101928261196e57600085556119b4565b82601f1061198757805160ff19168380011785556119b4565b828001600101855582156119b4579182015b828111156119b4578251825591602001919060010190611999565b506119c09291506119c4565b5090565b5b808211156119c057600081556001016119c5565b6001600160e01b031981168114610e2a57600080fd5b600060208284031215611a0157600080fd5b8135610cb5816119d9565b60005b83811015611a27578181015183820152602001611a0f565b83811115610bce5750506000910152565b60008151808452611a50816020860160208601611a0c565b601f01601f19169290920160200192915050565b602081526000610cb56020830184611a38565b600060208284031215611a8957600080fd5b5035919050565b80356001600160a01b0381168114611aa757600080fd5b919050565b60008060408385031215611abf57600080fd5b611ac883611a90565b946020939093013593505050565b600060208284031215611ae857600080fd5b610cb582611a90565b60006020808301818452808551808352604092508286019150828160051b87010184880160005b83811015611b8157603f19898403018552815160a08151818652611b3e82870182611a38565b838b0151878c0152898401518a88015260608085015160ff9081169189019190915260809485015116939096019290925250509386019390860190600101611b18565b509098975050505050505050565b600080600060608486031215611ba457600080fd5b611bad84611a90565b9250611bbb60208501611a90565b9150604084013590509250925092565b60008060408385031215611bde57600080fd5b611be783611a90565b915060208301358015158114611bfc57600080fd5b809150509250929050565b634e487b7160e01b600052604160045260246000fd5b600067ffffffffffffffff80841115611c3857611c38611c07565b604051601f8501601f19908116603f01168101908282118183101715611c6057611c60611c07565b81604052809350858152868686011115611c7957600080fd5b858560208301376000602087830101525050509392505050565b60008060008060808587031215611ca957600080fd5b611cb285611a90565b9350611cc060208601611a90565b925060408501359150606085013567ffffffffffffffff811115611ce357600080fd5b8501601f81018713611cf457600080fd5b611d0387823560208401611c1d565b91505092959194509250565b60a081526000611d2260a0830188611a38565b602083019690965250604081019390935260ff918216606084015216608090910152919050565b60008060408385031215611d5c57600080fd5b611d6583611a90565b9150611d7360208401611a90565b90509250929050565b600060208284031215611d8e57600080fd5b813567ffffffffffffffff811115611da557600080fd5b8201601f81018413611db657600080fd5b61112084823560208401611c1d565b600181811c90821680611dd957607f821691505b602082108103611df957634e487b7160e01b600052602260045260246000fd5b50919050565b634e487b7160e01b600052603260045260246000fd5b634e487b7160e01b600052601160045260246000fd5b600060ff821660ff8103611e4157611e41611e15565b60010192915050565b600060018201611e5c57611e5c611e15565b5060010190565b60208082526031908201527f4552433732313a207472616e736665722063616c6c6572206973206e6f74206f6040820152701ddb995c881b9bdc88185c1c1c9bdd9959607a1b606082015260800190565b6020808252818101527f4f776e61626c653a2063616c6c6572206973206e6f7420746865206f776e6572604082015260600190565b60008351611efb818460208801611a0c565b835190830190611f0f818360208801611a0c565b01949350505050565b600082821015611f2a57611f2a611e15565b500390565b60008219821115611f4257611f42611e15565b500190565b60208082526032908201527f4552433732313a207472616e7366657220746f206e6f6e20455243373231526560408201527131b2b4bb32b91034b6b83632b6b2b73a32b960711b606082015260800190565b634e487b7160e01b600052601260045260246000fd5b600082611fbe57611fbe611f99565b500490565b600082611fd257611fd2611f99565b500690565b6001600160a01b038581168252841660208201526040810183905260806060820181905260009061200a90830184611a38565b9695505050505050565b60006020828403121561202657600080fd5b8151610cb5816119d956fea26469706673582212205cb024eba8c11faa37ebd4a511d4cc9e59a6ef7c29eb34850a5e1831da34146a64736f6c634300080e0033",
  "immutableReferences": {},
  "source": "// SPDX-License-Identifier: MIT\r\n\r\npragma solidity ^0.8.14;\r\n\r\nimport \"@openzeppelin/contracts/token/ERC721/ERC721.sol\";\r\nimport \"@openzeppelin/contracts/access/Ownable.sol\";\r\n\r\ncontract DragonAgeGame is ERC721, Ownable {\r\n    constructor(string memory _name, string memory _symbol)\r\n        ERC721(_name, _symbol)\r\n    {}\r\n\r\n    uint256 COUNTER;\r\n\r\n    uint256 fee = 0.01 ether;\r\n\r\n    struct Dragon {\r\n        string name;\r\n        uint256 id;\r\n        uint256 dna;\r\n        uint8 level;\r\n        uint8 rarity;\r\n    }\r\n\r\n    Dragon[] public dragons;\r\n\r\n    event NewDragon(address indexed owner, uint256 id, uint256 dna);\r\n\r\n    // Helpers\r\n    function createRandomNum(uint256 _mod) internal view returns (uint256) {\r\n        uint256 randomNum = uint256(\r\n            keccak256(abi.encodePacked(block.timestamp, msg.sender))\r\n        );\r\n        return randomNum % _mod;\r\n    }\r\n\r\n    function updateFee(uint256 _fee) external onlyOwner {\r\n        fee = _fee;\r\n    }\r\n\r\n    function withdraw() external payable onlyOwner {\r\n        address payable _owner = payable(owner());\r\n        _owner.transfer(address(this).balance);\r\n    }\r\n\r\n    //Creation\r\n    function _createDragon(string memory _name) internal {\r\n        uint8 randRarity = uint8(createRandomNum(100));\r\n        uint256 randDna = createRandomNum(10**16);\r\n        Dragon memory newDragon = Dragon(\r\n            _name,\r\n            COUNTER,\r\n            randDna,\r\n            1,\r\n            randRarity\r\n        );\r\n        dragons.push(newDragon);\r\n        _safeMint(msg.sender, COUNTER);\r\n        emit NewDragon(msg.sender, COUNTER, randDna);\r\n        COUNTER++;\r\n    }\r\n\r\n    function createRandomDragon(string memory _name) public payable {\r\n        require(\r\n            msg.value >= fee,\r\n            \"The fee is not correct or not enough balance\"\r\n        );\r\n        _createDragon(_name);\r\n    }\r\n\r\n    //Getters\r\n    function getDragons() public view returns (Dragon[] memory) {\r\n        return dragons;\r\n    }\r\n\r\n    function getOwnerDragons(address owner)\r\n        public\r\n        view\r\n        returns (Dragon[] memory)\r\n    {\r\n        Dragon[] memory result = new Dragon[](balanceOf(owner));\r\n        uint256 counter = 0;\r\n        for (uint256 i = 0; i < dragons.length; i++) {\r\n            if (ownerOf(i) == owner) {\r\n                result[counter] = dragons[i];\r\n                counter++;\r\n            }\r\n            return result;\r\n        }\r\n    }\r\n\r\n    // Actions\r\n    function levelUp(uint256 _dragonID) public {\r\n        require(ownerOf(_dragonID) == msg.sender);\r\n        Dragon storage dragon = dragons[_dragonID];\r\n        dragon.level++;\r\n    }\r\n}\r\n",
  "sourcePath": "D:\\NFT Tools\\DRAGON GAME\\dragon_age_game\\contracts\\DragonAgeGame.sol",
  "compiler": {
    "name": "solc",
    "version": "0.8.14+commit.80d49f37.Emscripten.clang"
  },
  "schemaVersion": "3.4.7",
  "updatedAt": "2022-06-21T07:42:35.722Z",
  "networkType": "ethereum",
  "devdoc": {
    "kind": "dev",
    "methods": {
      "approve(address,uint256)": {
        "details": "See {IERC721-approve}."
      },
      "balanceOf(address)": {
        "details": "See {IERC721-balanceOf}."
      },
      "getApproved(uint256)": {
        "details": "See {IERC721-getApproved}."
      },
      "isApprovedForAll(address,address)": {
        "details": "See {IERC721-isApprovedForAll}."
      },
      "name()": {
        "details": "See {IERC721Metadata-name}."
      },
      "owner()": {
        "details": "Returns the address of the current owner."
      },
      "ownerOf(uint256)": {
        "details": "See {IERC721-ownerOf}."
      },
      "renounceOwnership()": {
        "details": "Leaves the contract without owner. It will not be possible to call `onlyOwner` functions anymore. Can only be called by the current owner. NOTE: Renouncing ownership will leave the contract without an owner, thereby removing any functionality that is only available to the owner."
      },
      "safeTransferFrom(address,address,uint256)": {
        "details": "See {IERC721-safeTransferFrom}."
      },
      "safeTransferFrom(address,address,uint256,bytes)": {
        "details": "See {IERC721-safeTransferFrom}."
      },
      "setApprovalForAll(address,bool)": {
        "details": "See {IERC721-setApprovalForAll}."
      },
      "supportsInterface(bytes4)": {
        "details": "See {IERC165-supportsInterface}."
      },
      "symbol()": {
        "details": "See {IERC721Metadata-symbol}."
      },
      "tokenURI(uint256)": {
        "details": "See {IERC721Metadata-tokenURI}."
      },
      "transferFrom(address,address,uint256)": {
        "details": "See {IERC721-transferFrom}."
      },
      "transferOwnership(address)": {
        "details": "Transfers ownership of the contract to a new account (`newOwner`). Can only be called by the current owner."
      }
    },
    "version": 1
  },
  "userdoc": {
    "kind": "user",
    "methods": {},
    "version": 1
  }
}